{
  "abi": [
    {
      "inputs": [
        {
          "internalType": "uint64",
          "name": "subscriptionId",
          "type": "uint64"
        }
      ],
      "stateMutability": "nonpayable",
      "type": "constructor"
    },
    {
      "inputs": [
        {
          "internalType": "address",
          "name": "have",
          "type": "address"
        },
        {
          "internalType": "address",
          "name": "want",
          "type": "address"
        }
      ],
      "name": "OnlyCoordinatorCanFulfill",
      "type": "error"
    },
    {
      "anonymous": false,
      "inputs": [
        {
          "indexed": false,
          "internalType": "address",
          "name": "winner",
          "type": "address"
        },
        {
          "indexed": false,
          "internalType": "uint256",
          "name": "id",
          "type": "uint256"
        }
      ],
      "name": "ChooseWinner",
      "type": "event"
    },
    {
      "inputs": [
        {
          "internalType": "uint256",
          "name": "requestId",
          "type": "uint256"
        },
        {
          "internalType": "uint256[]",
          "name": "randomWords",
          "type": "uint256[]"
        }
      ],
      "name": "rawFulfillRandomWords",
      "outputs": [],
      "stateMutability": "nonpayable",
      "type": "function"
    },
    {
      "inputs": [],
      "name": "requestRandomWords",
      "outputs": [],
      "stateMutability": "nonpayable",
      "type": "function"
    },
    {
      "inputs": [
        {
          "internalType": "uint256",
          "name": "_idMax",
          "type": "uint256"
        }
      ],
      "name": "runGiveaway",
      "outputs": [
        {
          "internalType": "uint256",
          "name": "",
          "type": "uint256"
        }
      ],
      "stateMutability": "nonpayable",
      "type": "function"
    },
    {
      "inputs": [
        {
          "internalType": "uint256",
          "name": "",
          "type": "uint256"
        }
      ],
      "name": "s_randomWords",
      "outputs": [
        {
          "internalType": "uint256",
          "name": "",
          "type": "uint256"
        }
      ],
      "stateMutability": "view",
      "type": "function"
    },
    {
      "inputs": [],
      "name": "s_requestId",
      "outputs": [
        {
          "internalType": "uint256",
          "name": "",
          "type": "uint256"
        }
      ],
      "stateMutability": "view",
      "type": "function"
    },
    {
      "inputs": [
        {
          "internalType": "address",
          "name": "_newOwner",
          "type": "address"
        }
      ],
      "name": "transferOwner",
      "outputs": [],
      "stateMutability": "nonpayable",
      "type": "function"
    }
  ],
  "bytecode": {
    "object": "0x60a0604052600180546001600160a01b031916736168499c0cffcacd319c818142124b7a15e857ab1790557fd89b2bf150e3b9e13446986e571fb9cab24b13cea0a43ea20a6049a85cc807cc6002556003805466020003000186a06001600160501b031990911617905534801561007557600080fd5b50604051610644380380610644833981016040819052610094916100f2565b6001546001600160a01b0316608081905260008054600680546001600160a01b0319908116339081179092556001600160401b03909516600160a01b026001600160e01b031990921690931717905560098054909216179055610122565b60006020828403121561010457600080fd5b81516001600160401b038116811461011b57600080fd5b9392505050565b6080516105016101436000396000818160e3015261012501526105016000f3fe608060405234801561001057600080fd5b50600436106100625760003560e01c80631fe543e3146100675780634fb2e45d1461007c578063d7b147211461008f578063e0c86289146100b4578063e89e106a146100bc578063f6eaffc8146100c5575b600080fd5b61007a61007536600461037c565b6100d8565b005b61007a61008a366004610446565b610165565b6100a261009d366004610476565b6101b1565b60405190815260200160405180910390f35b61007a6101e3565b6100a260055481565b6100a26100d3366004610476565b6102cd565b336001600160a01b037f000000000000000000000000000000000000000000000000000000000000000016146101575760405163073e64fd60e21b81523360048201526001600160a01b037f00000000000000000000000000000000000000000000000000000000000000001660248201526044015b60405180910390fd5b61016182826102ee565b5050565b6009546001600160a01b0316331461018f5760405162461bcd60e51b815260040161014e9061048f565b600980546001600160a01b0319166001600160a01b0392909216919091179055565b6009546000906001600160a01b031633146101de5760405162461bcd60e51b815260040161014e9061048f565b919050565b6009546001600160a01b0316331461020d5760405162461bcd60e51b815260040161014e9061048f565b6000546002546003546040516305d3b1d360e41b81526004810192909252600160a01b830467ffffffffffffffff166024830152640100000000810461ffff16604483015263ffffffff808216606484015266010000000000009091041660848201526001600160a01b0390911690635d3b1d309060a4016020604051808303816000875af11580156102a4573d6000803e3d6000fd5b505050506040513d601f19601f820116820180604052508101906102c891906104b2565b600555565b600481815481106102dd57600080fd5b600091825260209091200154905081565b8051610301906004906020840190610306565b505050565b828054828255906000526020600020908101928215610341579160200282015b82811115610341578251825591602001919060010190610326565b5061034d929150610351565b5090565b5b8082111561034d5760008155600101610352565b634e487b7160e01b600052604160045260246000fd5b6000806040838503121561038f57600080fd5b8235915060208084013567ffffffffffffffff808211156103af57600080fd5b818601915086601f8301126103c357600080fd5b8135818111156103d5576103d5610366565b8060051b604051601f19603f830116810181811085821117156103fa576103fa610366565b60405291825284820192508381018501918983111561041857600080fd5b938501935b828510156104365784358452938501939285019261041d565b8096505050505050509250929050565b60006020828403121561045857600080fd5b81356001600160a01b038116811461046f57600080fd5b9392505050565b60006020828403121561048857600080fd5b5035919050565b6020808252600990820152682737ba1037bbb732b960b91b604082015260600190565b6000602082840312156104c457600080fd5b505191905056fea26469706673582212200e53e9e5120d5d0e5698323e59f9c7c15a3475392c4e43269e3cc24f603290af64736f6c634300080d0033",
    "linkReferences": {}
  },
  "methodIdentifiers": {
    "rawFulfillRandomWords(uint256,uint256[])": "1fe543e3",
    "requestRandomWords()": "e0c86289",
    "runGiveaway(uint256)": "d7b14721",
    "s_randomWords(uint256)": "f6eaffc8",
    "s_requestId()": "e89e106a",
    "transferOwner(address)": "4fb2e45d"
  },
  "id": 11
}