{
  "abi": [
    {
      "inputs": [],
      "stateMutability": "nonpayable",
      "type": "constructor"
    },
    {
      "anonymous": false,
      "inputs": [
        {
          "indexed": true,
          "internalType": "address",
          "name": "owner",
          "type": "address"
        },
        {
          "indexed": true,
          "internalType": "address",
          "name": "approved",
          "type": "address"
        },
        {
          "indexed": true,
          "internalType": "uint256",
          "name": "tokenId",
          "type": "uint256"
        }
      ],
      "name": "Approval",
      "type": "event"
    },
    {
      "anonymous": false,
      "inputs": [
        {
          "indexed": true,
          "internalType": "address",
          "name": "owner",
          "type": "address"
        },
        {
          "indexed": true,
          "internalType": "address",
          "name": "operator",
          "type": "address"
        },
        {
          "indexed": false,
          "internalType": "bool",
          "name": "approved",
          "type": "bool"
        }
      ],
      "name": "ApprovalForAll",
      "type": "event"
    },
    {
      "anonymous": false,
      "inputs": [
        {
          "indexed": true,
          "internalType": "address",
          "name": "previousOwner",
          "type": "address"
        },
        {
          "indexed": true,
          "internalType": "address",
          "name": "newOwner",
          "type": "address"
        }
      ],
      "name": "OwnershipTransferred",
      "type": "event"
    },
    {
      "anonymous": false,
      "inputs": [
        {
          "indexed": true,
          "internalType": "address",
          "name": "from",
          "type": "address"
        },
        {
          "indexed": true,
          "internalType": "address",
          "name": "to",
          "type": "address"
        },
        {
          "indexed": true,
          "internalType": "uint256",
          "name": "tokenId",
          "type": "uint256"
        }
      ],
      "name": "Transfer",
      "type": "event"
    },
    {
      "inputs": [
        {
          "internalType": "address",
          "name": "to",
          "type": "address"
        },
        {
          "internalType": "uint256",
          "name": "tokenId",
          "type": "uint256"
        }
      ],
      "name": "approve",
      "outputs": [],
      "stateMutability": "nonpayable",
      "type": "function"
    },
    {
      "inputs": [
        {
          "internalType": "address",
          "name": "owner",
          "type": "address"
        }
      ],
      "name": "balanceOf",
      "outputs": [
        {
          "internalType": "uint256",
          "name": "",
          "type": "uint256"
        }
      ],
      "stateMutability": "view",
      "type": "function"
    },
    {
      "inputs": [
        {
          "internalType": "uint256",
          "name": "tokenId",
          "type": "uint256"
        }
      ],
      "name": "getApproved",
      "outputs": [
        {
          "internalType": "address",
          "name": "",
          "type": "address"
        }
      ],
      "stateMutability": "view",
      "type": "function"
    },
    {
      "inputs": [
        {
          "internalType": "address",
          "name": "owner",
          "type": "address"
        },
        {
          "internalType": "address",
          "name": "operator",
          "type": "address"
        }
      ],
      "name": "isApprovedForAll",
      "outputs": [
        {
          "internalType": "bool",
          "name": "",
          "type": "bool"
        }
      ],
      "stateMutability": "view",
      "type": "function"
    },
    {
      "inputs": [
        {
          "internalType": "address",
          "name": "recipient",
          "type": "address"
        }
      ],
      "name": "mintNFT",
      "outputs": [
        {
          "internalType": "uint256",
          "name": "",
          "type": "uint256"
        }
      ],
      "stateMutability": "nonpayable",
      "type": "function"
    },
    {
      "inputs": [
        {
          "internalType": "address[]",
          "name": "_recipients",
          "type": "address[]"
        },
        {
          "internalType": "uint256",
          "name": "numberOfTurns",
          "type": "uint256"
        }
      ],
      "name": "multiMint",
      "outputs": [],
      "stateMutability": "nonpayable",
      "type": "function"
    },
    {
      "inputs": [],
      "name": "name",
      "outputs": [
        {
          "internalType": "string",
          "name": "",
          "type": "string"
        }
      ],
      "stateMutability": "view",
      "type": "function"
    },
    {
      "inputs": [],
      "name": "owner",
      "outputs": [
        {
          "internalType": "address",
          "name": "",
          "type": "address"
        }
      ],
      "stateMutability": "view",
      "type": "function"
    },
    {
      "inputs": [
        {
          "internalType": "uint256",
          "name": "tokenId",
          "type": "uint256"
        }
      ],
      "name": "ownerOf",
      "outputs": [
        {
          "internalType": "address",
          "name": "",
          "type": "address"
        }
      ],
      "stateMutability": "view",
      "type": "function"
    },
    {
      "inputs": [],
      "name": "renounceOwnership",
      "outputs": [],
      "stateMutability": "nonpayable",
      "type": "function"
    },
    {
      "inputs": [
        {
          "internalType": "address",
          "name": "from",
          "type": "address"
        },
        {
          "internalType": "address",
          "name": "to",
          "type": "address"
        },
        {
          "internalType": "uint256",
          "name": "tokenId",
          "type": "uint256"
        }
      ],
      "name": "safeTransferFrom",
      "outputs": [],
      "stateMutability": "nonpayable",
      "type": "function"
    },
    {
      "inputs": [
        {
          "internalType": "address",
          "name": "from",
          "type": "address"
        },
        {
          "internalType": "address",
          "name": "to",
          "type": "address"
        },
        {
          "internalType": "uint256",
          "name": "tokenId",
          "type": "uint256"
        },
        {
          "internalType": "bytes",
          "name": "data",
          "type": "bytes"
        }
      ],
      "name": "safeTransferFrom",
      "outputs": [],
      "stateMutability": "nonpayable",
      "type": "function"
    },
    {
      "inputs": [
        {
          "internalType": "address",
          "name": "operator",
          "type": "address"
        },
        {
          "internalType": "bool",
          "name": "approved",
          "type": "bool"
        }
      ],
      "name": "setApprovalForAll",
      "outputs": [],
      "stateMutability": "nonpayable",
      "type": "function"
    },
    {
      "inputs": [
        {
          "internalType": "bytes4",
          "name": "interfaceId",
          "type": "bytes4"
        }
      ],
      "name": "supportsInterface",
      "outputs": [
        {
          "internalType": "bool",
          "name": "",
          "type": "bool"
        }
      ],
      "stateMutability": "view",
      "type": "function"
    },
    {
      "inputs": [],
      "name": "symbol",
      "outputs": [
        {
          "internalType": "string",
          "name": "",
          "type": "string"
        }
      ],
      "stateMutability": "view",
      "type": "function"
    },
    {
      "inputs": [
        {
          "internalType": "uint256",
          "name": "tokenId",
          "type": "uint256"
        }
      ],
      "name": "tokenURI",
      "outputs": [
        {
          "internalType": "string",
          "name": "",
          "type": "string"
        }
      ],
      "stateMutability": "view",
      "type": "function"
    },
    {
      "inputs": [
        {
          "internalType": "address",
          "name": "from",
          "type": "address"
        },
        {
          "internalType": "address",
          "name": "to",
          "type": "address"
        },
        {
          "internalType": "uint256",
          "name": "tokenId",
          "type": "uint256"
        }
      ],
      "name": "transferFrom",
      "outputs": [],
      "stateMutability": "nonpayable",
      "type": "function"
    },
    {
      "inputs": [
        {
          "internalType": "address",
          "name": "newOwner",
          "type": "address"
        }
      ],
      "name": "transferOwnership",
      "outputs": [],
      "stateMutability": "nonpayable",
      "type": "function"
    }
  ],
  "bytecode": {
    "object": "0x60806040523480156200001157600080fd5b50604080518082018252600a81526946616b655475726b657960b01b60208083019182528351808501909452600384526246545960e81b9084015281519192916200005f91600091620000ee565b50805162000075906001906020840190620000ee565b505050620000926200008c6200009860201b60201c565b6200009c565b620001d0565b3390565b600780546001600160a01b038381166001600160a01b0319831681179093556040519116919082907f8be0079c531659141344cd1fd0a4f28419497f9722a3daafe3b4186f6b6457e090600090a35050565b828054620000fc9062000194565b90600052602060002090601f0160209004810192826200012057600085556200016b565b82601f106200013b57805160ff19168380011785556200016b565b828001600101855582156200016b579182015b828111156200016b5782518255916020019190600101906200014e565b50620001799291506200017d565b5090565b5b808211156200017957600081556001016200017e565b600181811c90821680620001a957607f821691505b602082108103620001ca57634e487b7160e01b600052602260045260246000fd5b50919050565b61180f80620001e06000396000f3fe608060405234801561001057600080fd5b50600436106101165760003560e01c806370a08231116100a2578063a22cb46511610071578063a22cb46514610239578063b88d4fde1461024c578063c87b56dd1461025f578063e985e9c514610272578063f2fde38b146102ae57600080fd5b806370a0823114610205578063715018a6146102185780638da5cb5b1461022057806395d89b411461023157600080fd5b806323b872dd116100e957806323b872dd1461019857806342842e0e146101ab5780634c8baca9146101be57806354ba0f27146101d15780636352211e146101f257600080fd5b806301ffc9a71461011b57806306fdde0314610143578063081812fc14610158578063095ea7b314610183575b600080fd5b61012e61012936600461125e565b6102c1565b60405190151581526020015b60405180910390f35b61014b610313565b60405161013a91906112d3565b61016b6101663660046112e6565b6103a5565b6040516001600160a01b03909116815260200161013a565b61019661019136600461131b565b6103cc565b005b6101966101a6366004611345565b6104e6565b6101966101b9366004611345565b610517565b6101966101cc3660046113c8565b610532565b6101e46101df36600461147b565b610591565b60405190815260200161013a565b61016b6102003660046112e6565b6105e1565b6101e461021336600461147b565b610641565b6101966106c7565b6007546001600160a01b031661016b565b61014b6106db565b610196610247366004611496565b6106ea565b61019661025a3660046114d2565b6106f9565b61014b61026d3660046112e6565b610731565b61012e610280366004611592565b6001600160a01b03918216600090815260056020908152604080832093909416825291909152205460ff1690565b6101966102bc36600461147b565b610841565b60006001600160e01b031982166380ac58cd60e01b14806102f257506001600160e01b03198216635b5e139f60e01b145b8061030d57506301ffc9a760e01b6001600160e01b03198316145b92915050565b606060008054610322906115c5565b80601f016020809104026020016040519081016040528092919081815260200182805461034e906115c5565b801561039b5780601f106103705761010080835404028352916020019161039b565b820191906000526020600020905b81548152906001019060200180831161037e57829003601f168201915b5050505050905090565b60006103b0826108ba565b506000908152600460205260409020546001600160a01b031690565b60006103d7826105e1565b9050806001600160a01b0316836001600160a01b0316036104495760405162461bcd60e51b815260206004820152602160248201527f4552433732313a20617070726f76616c20746f2063757272656e74206f776e656044820152603960f91b60648201526084015b60405180910390fd5b336001600160a01b038216148061046557506104658133610280565b6104d75760405162461bcd60e51b815260206004820152603d60248201527f4552433732313a20617070726f76652063616c6c6572206973206e6f7420746f60448201527f6b656e206f776e6572206f7220617070726f76656420666f7220616c6c0000006064820152608401610440565b6104e18383610919565b505050565b6104f03382610987565b61050c5760405162461bcd60e51b8152600401610440906115ff565b6104e1838383610a05565b6104e1838383604051806020016040528060008152506106f9565b60005b82518110156104e15760005b8281101561057e5761056b84838151811061055e5761055e61164c565b6020026020010151610591565b508061057681611678565b915050610541565b508061058981611678565b915050610535565b60006105a1600880546001019055565b60006105ac60085490565b90506105b88382610bb0565b61030d81604051806040016040528060078152602001667465737455726960c81b815250610cf2565b6000818152600260205260408120546001600160a01b03168061030d5760405162461bcd60e51b8152602060048201526018602482015277115490cdcc8c4e881a5b9d985b1a59081d1bdad95b88125160421b6044820152606401610440565b60006001600160a01b0382166106ab5760405162461bcd60e51b815260206004820152602960248201527f4552433732313a2061646472657373207a65726f206973206e6f7420612076616044820152683634b21037bbb732b960b91b6064820152608401610440565b506001600160a01b031660009081526003602052604090205490565b6106cf610d8c565b6106d96000610de6565b565b606060018054610322906115c5565b6106f5338383610e38565b5050565b6107033383610987565b61071f5760405162461bcd60e51b8152600401610440906115ff565b61072b84848484610f06565b50505050565b606061073c826108ba565b60008281526006602052604081208054610755906115c5565b80601f0160208091040260200160405190810160405280929190818152602001828054610781906115c5565b80156107ce5780601f106107a3576101008083540402835291602001916107ce565b820191906000526020600020905b8154815290600101906020018083116107b157829003601f168201915b5050505050905060006107ec60408051602081019091526000815290565b905080516000036107fe575092915050565b815115610830578082604051602001610818929190611691565b60405160208183030381529060405292505050919050565b61083984610f39565b949350505050565b610849610d8c565b6001600160a01b0381166108ae5760405162461bcd60e51b815260206004820152602660248201527f4f776e61626c653a206e6577206f776e657220697320746865207a65726f206160448201526564647265737360d01b6064820152608401610440565b6108b781610de6565b50565b6000818152600260205260409020546001600160a01b03166108b75760405162461bcd60e51b8152602060048201526018602482015277115490cdcc8c4e881a5b9d985b1a59081d1bdad95b88125160421b6044820152606401610440565b600081815260046020526040902080546001600160a01b0319166001600160a01b038416908117909155819061094e826105e1565b6001600160a01b03167f8c5be1e5ebec7d5bd14f71427d1e84f3dd0314c0f7b2291e5b200ac8c7c3b92560405160405180910390a45050565b600080610993836105e1565b9050806001600160a01b0316846001600160a01b031614806109da57506001600160a01b0380821660009081526005602090815260408083209388168352929052205460ff165b806108395750836001600160a01b03166109f3846103a5565b6001600160a01b031614949350505050565b826001600160a01b0316610a18826105e1565b6001600160a01b031614610a7c5760405162461bcd60e51b815260206004820152602560248201527f4552433732313a207472616e736665722066726f6d20696e636f72726563742060448201526437bbb732b960d91b6064820152608401610440565b6001600160a01b038216610ade5760405162461bcd60e51b8152602060048201526024808201527f4552433732313a207472616e7366657220746f20746865207a65726f206164646044820152637265737360e01b6064820152608401610440565b600081815260046020908152604080832080546001600160a01b03191690556001600160a01b038616835260039091528120805460019290610b219084906116c0565b90915550506001600160a01b0382166000908152600360205260408120805460019290610b4f9084906116d7565b909155505060008181526002602052604080822080546001600160a01b0319166001600160a01b0386811691821790925591518493918716917fddf252ad1be2c89b69c2b068fc378daa952ba7f163c4a11628f55a4df523b3ef91a4505050565b6001600160a01b038216610c065760405162461bcd60e51b815260206004820181905260248201527f4552433732313a206d696e7420746f20746865207a65726f20616464726573736044820152606401610440565b6000818152600260205260409020546001600160a01b031615610c6b5760405162461bcd60e51b815260206004820152601c60248201527f4552433732313a20746f6b656e20616c7265616479206d696e746564000000006044820152606401610440565b6001600160a01b0382166000908152600360205260408120805460019290610c949084906116d7565b909155505060008181526002602052604080822080546001600160a01b0319166001600160a01b03861690811790915590518392907fddf252ad1be2c89b69c2b068fc378daa952ba7f163c4a11628f55a4df523b3ef908290a45050565b6000828152600260205260409020546001600160a01b0316610d6d5760405162461bcd60e51b815260206004820152602e60248201527f45524337323155524953746f726167653a2055524920736574206f66206e6f6e60448201526d32bc34b9ba32b73a103a37b5b2b760911b6064820152608401610440565b600082815260066020908152604090912082516104e1928401906111af565b6007546001600160a01b031633146106d95760405162461bcd60e51b815260206004820181905260248201527f4f776e61626c653a2063616c6c6572206973206e6f7420746865206f776e65726044820152606401610440565b600780546001600160a01b038381166001600160a01b0319831681179093556040519116919082907f8be0079c531659141344cd1fd0a4f28419497f9722a3daafe3b4186f6b6457e090600090a35050565b816001600160a01b0316836001600160a01b031603610e995760405162461bcd60e51b815260206004820152601960248201527f4552433732313a20617070726f766520746f2063616c6c6572000000000000006044820152606401610440565b6001600160a01b03838116600081815260056020908152604080832094871680845294825291829020805460ff191686151590811790915591519182527f17307eab39ab6107e8899845ad3d59bd9653f200f220920489ca2b5937696c31910160405180910390a3505050565b610f11848484610a05565b610f1d84848484610fad565b61072b5760405162461bcd60e51b8152600401610440906116ef565b6060610f44826108ba565b6000610f5b60408051602081019091526000815290565b90506000815111610f7b5760405180602001604052806000815250610fa6565b80610f85846110ae565b604051602001610f96929190611691565b6040516020818303038152906040525b9392505050565b60006001600160a01b0384163b156110a357604051630a85bd0160e11b81526001600160a01b0385169063150b7a0290610ff1903390899088908890600401611741565b6020604051808303816000875af192505050801561102c575060408051601f3d908101601f191682019092526110299181019061177e565b60015b611089573d80801561105a576040519150601f19603f3d011682016040523d82523d6000602084013e61105f565b606091505b5080516000036110815760405162461bcd60e51b8152600401610440906116ef565b805181602001fd5b6001600160e01b031916630a85bd0160e11b149050610839565b506001949350505050565b6060816000036110d55750506040805180820190915260018152600360fc1b602082015290565b8160005b81156110ff57806110e981611678565b91506110f89050600a836117b1565b91506110d9565b60008167ffffffffffffffff81111561111a5761111a611381565b6040519080825280601f01601f191660200182016040528015611144576020820181803683370190505b5090505b8415610839576111596001836116c0565b9150611166600a866117c5565b6111719060306116d7565b60f81b8183815181106111865761118661164c565b60200101906001600160f81b031916908160001a9053506111a8600a866117b1565b9450611148565b8280546111bb906115c5565b90600052602060002090601f0160209004810192826111dd5760008555611223565b82601f106111f657805160ff1916838001178555611223565b82800160010185558215611223579182015b82811115611223578251825591602001919060010190611208565b5061122f929150611233565b5090565b5b8082111561122f5760008155600101611234565b6001600160e01b0319811681146108b757600080fd5b60006020828403121561127057600080fd5b8135610fa681611248565b60005b8381101561129657818101518382015260200161127e565b8381111561072b5750506000910152565b600081518084526112bf81602086016020860161127b565b601f01601f19169290920160200192915050565b602081526000610fa660208301846112a7565b6000602082840312156112f857600080fd5b5035919050565b80356001600160a01b038116811461131657600080fd5b919050565b6000806040838503121561132e57600080fd5b611337836112ff565b946020939093013593505050565b60008060006060848603121561135a57600080fd5b611363846112ff565b9250611371602085016112ff565b9150604084013590509250925092565b634e487b7160e01b600052604160045260246000fd5b604051601f8201601f1916810167ffffffffffffffff811182821017156113c0576113c0611381565b604052919050565b600080604083850312156113db57600080fd5b823567ffffffffffffffff808211156113f357600080fd5b818501915085601f83011261140757600080fd5b813560208282111561141b5761141b611381565b8160051b925061142c818401611397565b828152928401810192818101908985111561144657600080fd5b948201945b8486101561146b5761145c866112ff565b8252948201949082019061144b565b9997909101359750505050505050565b60006020828403121561148d57600080fd5b610fa6826112ff565b600080604083850312156114a957600080fd5b6114b2836112ff565b9150602083013580151581146114c757600080fd5b809150509250929050565b600080600080608085870312156114e857600080fd5b6114f1856112ff565b935060206115008187016112ff565b935060408601359250606086013567ffffffffffffffff8082111561152457600080fd5b818801915088601f83011261153857600080fd5b81358181111561154a5761154a611381565b61155c601f8201601f19168501611397565b9150808252898482850101111561157257600080fd5b808484018584013760008482840101525080935050505092959194509250565b600080604083850312156115a557600080fd5b6115ae836112ff565b91506115bc602084016112ff565b90509250929050565b600181811c908216806115d957607f821691505b6020821081036115f957634e487b7160e01b600052602260045260246000fd5b50919050565b6020808252602d908201527f4552433732313a2063616c6c6572206973206e6f7420746f6b656e206f776e6560408201526c1c881bdc88185c1c1c9bdd9959609a1b606082015260800190565b634e487b7160e01b600052603260045260246000fd5b634e487b7160e01b600052601160045260246000fd5b60006001820161168a5761168a611662565b5060010190565b600083516116a381846020880161127b565b8351908301906116b781836020880161127b565b01949350505050565b6000828210156116d2576116d2611662565b500390565b600082198211156116ea576116ea611662565b500190565b60208082526032908201527f4552433732313a207472616e7366657220746f206e6f6e20455243373231526560408201527131b2b4bb32b91034b6b83632b6b2b73a32b960711b606082015260800190565b6001600160a01b0385811682528416602082015260408101839052608060608201819052600090611774908301846112a7565b9695505050505050565b60006020828403121561179057600080fd5b8151610fa681611248565b634e487b7160e01b600052601260045260246000fd5b6000826117c0576117c061179b565b500490565b6000826117d4576117d461179b565b50069056fea2646970667358221220bf6eeb8bce9ed249d92828fb212b23b9f3ea7ca3d141e0c2a27d426604289b1a64736f6c634300080d0033",
    "linkReferences": {}
  },
  "methodIdentifiers": {
    "approve(address,uint256)": "095ea7b3",
    "balanceOf(address)": "70a08231",
    "getApproved(uint256)": "081812fc",
    "isApprovedForAll(address,address)": "e985e9c5",
    "mintNFT(address)": "54ba0f27",
    "multiMint(address[],uint256)": "4c8baca9",
    "name()": "06fdde03",
    "owner()": "8da5cb5b",
    "ownerOf(uint256)": "6352211e",
    "renounceOwnership()": "715018a6",
    "safeTransferFrom(address,address,uint256)": "42842e0e",
    "safeTransferFrom(address,address,uint256,bytes)": "b88d4fde",
    "setApprovalForAll(address,bool)": "a22cb465",
    "supportsInterface(bytes4)": "01ffc9a7",
    "symbol()": "95d89b41",
    "tokenURI(uint256)": "c87b56dd",
    "transferFrom(address,address,uint256)": "23b872dd",
    "transferOwnership(address)": "f2fde38b"
  },
  "id": 21
}